:1000000099C00000B7C00000B5C00000B3C0000038
:10001000B1C00000AFC0000045C20000ABC000008E
:10002000A9C00000A7C00000A5C00000A3C0000038
:10003000A1C0000009C300009DC000009BC00000DB
:1000400099C0000097C0000095C0000093C0000058
:1000500091C000008FC000008DC000008BC0000068
:1000600089C000002EC2000085C0000083C00000CF
:1000700081C000007FC000007DC000007BC0000088
:1000800079C0000077C0000075C0000073C0000098
:100090004AC20000E8C200006DC000006BC0000052
:1000A00069C0000067C00000BEC2000063C000005D
:1000B00061C000005FC000005DC000005BC00000C8
:1000C00059C0000057C0000055C0000053C00000D8
:1000D00051C000004FC000004DC000004BC00000E8
:1000E00049C0000047C0000045C0000043C00000F8
:1000F00041C000003FC000003DC000003BC0000008
:1001000039C0000037C0000035C0000033C0000017
:1001100031C000002FC000002DC000002BC0000027
:1001200029C0000027C0000025C0000023C0000037
:1001300021C0000011241FBECFEFD1E8DEBFCDBF2C
:1001400000E00CBF12E0A0E0B2E0E6EDFCE100E070
:100150000BBF02C007900D92A03CB107D9F728E170
:10016000A0ECB2E001C01D92AA3BB207E1F7C3D0F8
:100170000C94690E45CF1092C204089581E0089551
:100180002091C204211117C0E3ECF4E0968385832B
:1001900086E08783808792E091872BE838E1338778
:1001A000228784878BEB90E096878587CF01D1D219
:1001B00081E08093C2040895F8948EE084B985B9F3
:1001C00084E08DB98EB980E096E90E94670D80E8E1
:1001D00095E20E947C0DE9ECF0E0808180688083EC
:1001E000E1ECF0E0808180688083ED9AEAE6F0E05F
:1001F00080818460808380818860808383E09EE04A
:100200002FEF34E34CE0215030404040E1F700C094
:10021000000015B82FEF34E34CE02150304040404F
:10022000E1F700C0000095B9815051F77894089526
:100230002FEF84E39CE0215080409040E1F700C024
:1002400000001EB82FEF81EE94E0215080409040D6
:10025000E1F700C0000084E08EB908950F931F936A
:10026000CF93DF93CDB7DEB7DA950FB6F894DEBF44
:100270000FBECDBF8B01BC01CE0101960E94430E83
:10028000FE01319680E090E021912432C1F4248176
:100290002334A9F4FE01E80FF91F208530ED320F59
:1002A0003A30A8F080E01CC0819190ED980F9A3010
:1002B00060F48D93A017B107B9F781E011C00196E2
:1002C0008C3E910509F780E00BC080E009C0D801A1
:1002D0002D938C0F9D1FFC0139960A5F1F4FE4CFB1
:1002E000D3950FB6F894DEBF0FBECDBFDF91CF918F
:1002F0001F910F9108950E94620C552453940F2E64
:10030000FAE08F2EFDE09F2EF02D6894442441F8F2
:100310000F2EF3ECAF2EF4E0BF2EF02DCC24CA94B8
:10032000DC2C0F2EF7E03F2EF02D0F2EF5E8EF2EF0
:10033000F8E1FF2EF02D0F2EFBEB6F2EF0E07F2E5D
:10034000F02DCBE0D2E00E94690C8091D404813082
:1003500071F120F0823009F497C0F5CF81E090E090
:10036000B5D180E790E0B9D18FE00E94910B852D47
:100370000E948D0B6EEB70E0852DB6D186E4EEE029
:10038000F2E0A2ECB2E001900D928A95E1F7F7015C
:10039000508212DF4DDFFFEF29E688E1F150204067
:1003A0008040E1F700C000005092D404CCCF9FEF12
:1003B000EDE3F9E49150E040F040E1F700C00000C7
:1003C0008091C0028823A9F08091C20481110FC0DE
:1003D000F501D682C582378230864186F386E28671
:1003E000548676866586C501B4D15092C2041092B7
:1003F000C00288E1E5E5F2E0A2ECB3E001900D92E5
:100400008A95E1F782EC93E00E94990D82EC92E0EC
:100410000E94990D64E072E082EC92E01FDF882375
:1004200019F102EC13E085E1EDE6F2E0D80101906C
:100430000D928A95E1F7C8010E94990D8DE0E2E8DE
:10044000F2E0D80101900D928A95E1F7C8010E946F
:10045000990D84E092E00E94990DF80191828082CA
:1004600012824092D4046FCF83E2EFE8F2E0A2EC74
:10047000B3E001900D928A95E1F782EC93E00E943F
:10048000990D5092D4045FCFE4E0F2E0ABE8B8E11C
:1004900081918D93EC17FD07D9F7C60171DE50925B
:1004A000D40451CF1F920F920FB60F9211248F9345
:1004B00081E08093C0028F910F900FBE0F901F902C
:1004C00018951F920F920FB60F9211240BB60F9230
:1004D0008F939F93EF93FF93CF93DF931F92CDB7AB
:1004E000DEB78091C60089838091C1028F3F59F0A9
:1004F000E82FF0E09981EE53FD4F908311828F5FDA
:100500008093C10202C01092C1020F90DF91CF917F
:10051000FF91EF919F918F910F900BBE0F900FBEA7
:100520000F901F9018951F920F920FB60F921124E3
:100530000BB60F922F933F934F935F936F937F93DD
:100540008F939F93AF93BF93EF93FF93CF93DF93DB
:10055000CDB7DEB7C155D109DEBFCDBF8091CE008A
:1005600089838981823771F463DE8EE0E2EBF2E009
:10057000DE01129601900D928A95E1F7CE01029666
:100580000E94990D8981813349F42FEF81E19AE727
:10059000215080409040E1F700C00000CF5ADF4F6B
:1005A0000FB6F894DEBF0FBECDBFDF91CF91FF91A4
:1005B000EF91BF91AF919F918F917F916F915F91DB
:1005C0004F913F912F910F900BBE0F900FBE0F9048
:1005D0001F90189514BE0FB6F894A89580916000EE
:1005E000886180936000109260000FBEE1E6F0E049
:1005F00080E880831082789401C008951092911849
:1006000080E197E29093A9008093A800E1EAF0E0EE
:1006100088E08083808182608083E2E7F0E08081EF
:100620008260808308951F920F920FB60F9211245B
:100630008F93809191188F5F809391188F910F9075
:100640000FBE0F901F9018951F920F920FB60F922A
:1006500011248F9381E08093D5048F910F900FBE6A
:100660000F901F9018951F920F920FB60F921124A2
:100670000BB60F928F93EF93FF9381E08093D60494
:10068000E9ECF0E080818F7D8083FF91EF918F9185
:100690000F900BBE0F900FBE0F901F901895E2E9C0
:1006A000F8E1148215821182108217A216A2E8E9DD
:1006B000F8E188EB98E111921192E817F907D9F760
:1006C00042D660D30DD140D092C108959093931833
:1006D000809392180C94A70B08959093951880938B
:1006E00094180C94950B0895E82FF0E0EE0FFF1F7F
:1006F000E856F74E7183608308958BD320D74DC0A1
:100700000895E091D704F091D8043097D9F0228170
:1007100033818217930789F405C02281338128171A
:10072000390759F4DC01AD57BF4F2C912787139639
:100730002C91208B22E0248305C00190F081E02DD4
:10074000309759F711C108951092D8041092D70428
:100750000895FC011482178613821282A2E9B8E17F
:1007600096968D919C919797019697969C938E93D0
:1007700096978091D7049091D804009739F411820C
:100780001082F093D804E093D70408959183808376
:10079000F093D804E093D70408950F931F93CF9359
:1007A000DF93E091D704F091D804309709F493C017
:1007B000EF018C81882321F0823009F466C085C066
:1007C0009AD08C01009721F482E08C838F8783C0BC
:1007D0009B838A8381E08C83F801E957FF4F81E88E
:1007E00093E0918380833197898582FB882780F904
:1007F00080839985D8011B968C911B9790FB80F97B
:100800001B968C931B97998593FB992790F990FBE6
:1008100082F91B968C931B97E2E9F8E184818F5F44
:1008200084831C968C931C97808191811E969C9347
:100830008E931D978D819E8150969C938E931F97CA
:100840008885982F9F7051968C915197807F892B26
:1008500051968C9351979F819295907F8F70892BA1
:1008600051968C93F801EF57FF4F4C8550E06A8505
:100870007B85808191810E943A0EF80191818C855F
:10088000890F8183C80182D526C0EC17FD0741F48A
:10089000808191819093D8048093D7040AC0FC0191
:1008A000808191818C179D07D1F7888199819183EF
:1008B0008083E2E9F8E186A197A1019797A386A337
:1008C000ED85FE85CE01199506C00990D881C02D11
:1008D000209709F06ECFDF91CF911F910F9108956E
:1008E000E9EDF4E087EE94E11082E757FF4FE81757
:1008F000F907D1F708958091D904882359F0E2E6E9
:10090000F5E067EE74E181E090E0AC012081211117
:1009100022C002C040E050E069E8649F9001659FFA
:10092000300D1124C90187529B4FFC0111926A9529
:10093000E9F740E1FC014183EF57FF4F25513B4F61
:1009400031832083E2E9F8E126A137A12F5F3F4FF1
:1009500037A326A308950196E757FF4FE617F70739
:10096000A1F680E090E00895FC011082E2E9F8E150
:1009700086A197A1019797A386A30895009741F0B8
:10098000FC01E757FF4F84E1E73EF80718F012C07B
:10099000E9EDF4E08081882321F00FC0808181118E
:1009A0000FC0E757FF4F84E1E73EF807B8F380E058
:1009B00090E0089580E090E008958E2F9F2F089595
:1009C0008E2F9F2F0895FC01DC01AD57BF4F1C9265
:1009D000A2E9B8E114969C9114979F5F14969C939A
:1009E000149794878D919C91968785870895A8EE9A
:1009F000B4E180E090E04FEF5FEF11965C934E938F
:100A0000FC01EE0FFF1FEE0FFF1FEE0FFF1FE81B95
:100A1000F90BE951FB4E20812E7F208314961C9206
:100A20001497019617968436910539F708950F9318
:100A30001F93CF93DF93E8EEF4E120E030E0062F40
:100A400010E04081518148175907B1F4D901AA0F2C
:100A5000BB1FAA0FBB1FAA0FBB1FA21BB30BA95121
:100A6000BB4E4C9146954170C42F40E0D42FC01727
:100A7000D10711F4CD0108C02F5F3F4F37962436C0
:100A80003105F9F680E090E0DF91CF911F910F9151
:100A90000895A0E0B0E0E7EEF4E1808180FD0DC0B4
:100AA0008581882381F0109739F015969C911597D0
:100AB000891718F4DF0101C0DF01379687E1E33AB7
:100AC000F80759F7FD0180818D708063808380E88D
:100AD0008583CF010895FC01808180FD05C08FEFE3
:100AE0009FEF9283818315820895A1DF009721F003
:100AF000FC018381948108958FEF9FEF089597DF24
:100B0000009709F0E8CF08950F931F93CF93DF93D9
:100B1000FC010185128511232CF485859685081723
:100B20001907E1F5858196810196C1F1EF0160E039
:100B3000858596857CDFFC01892BA1F08F819885C6
:100B40000196F9F420919218309193188F85988925
:100B500028173907B1F41483038380818F70806371
:100B600080830AC096DFFC018D859E8592838183F8
:100B700089859A8594838383CD57DF4F88818683C7
:100B80000DC08381948108171907B1F39681DE01A6
:100B9000AD57BF4F8C919817F0F2EECFDF91CF9108
:100BA0001F910F910895CF93DF93FC018785908962
:100BB0008F3F2FEF9207D9F1EF01638563FB662723
:100BC00060F935DFDC01892B91F18C9180FD2FC01C
:100BD000FE01ED57FF4F8081811119C08C918F70FC
:100BE00080638C9315968C9115978F5F15968C93D7
:100BF0008F3FE9F4ECEEF4E128EA37E18081869555
:100C00008F5F80833796E217F307C1F710C09C917E
:100C1000892F82958F70815F8F70282F2295207F7A
:100C20009F70922B9C93811102C0CD0154DFDF9104
:100C3000CF910895CF93DF93FC01878590898F3FF3
:100C40002FEF920729F48FEF9FEF908787830EC0D5
:100C5000238522FF03C09087878308C0EF01638547
:100C600063FB662760F941DF98878F83DF91CF911F
:100C70000895AF92BF92CF92DF92EF92FF921F93AF
:100C8000CF93DF93EC011B8513FB112710F9CF8461
:100C9000D888612FC60129DF019659F0FE01E95776
:100CA000FF4F11821082319782E08083CE016ED394
:100CB00022C0AD84BE841FDE7C010097D1F083DEAC
:100CC000F70181818A5F8183E957FF4F118210828A
:100CD000F701B08AA786EF57FF4F0190F081E02D12
:100CE00081E08083B282A182D482C3821583C7014E
:100CF0004DD3CE0139DEDF91CF911F91FF90EF9060
:100D0000DF90CF90BF90AF900895FC0121852630F1
:100D100049F40780F085E02D658183819481EFDEC1
:100D200081E0089580E00895DC0119962C911997CF
:100D3000222371F01796ED91FC91189720812223C0
:100D400019F0213019F006C0B2C30895DECF08951E
:100D500080E0089580E00895BC01E5EBF7E127EE1F
:100D600037E140E051E09081992319F09150908350
:100D7000452F3596E217F307B1F7442311F0CB0165
:100D800030C60895E5EBF7E187EE97E110823596DE
:100D9000E817F907D9F7E3EAF7E184E690E0A0E085
:100DA000B0E086839783A087B18712868CEA96E0AD
:100DB0009487838764E976E080E096CC0895CF93AA
:100DC000DF93DC01ED91FC91119721812838F1F43A
:100DD00020812F7D2134D1F412962C912031B0F056
:100DE000EC0189DD009791F020E2FC0120832A814B
:100DF00021832B81ED57FF4F20832C813196208357
:100E00004A8150E068817981029634D7DF91CF9191
:100E100008952F923F924F925F926F927F928F929E
:100E20009F92AF92BF92CF92DF92EF92FF920F9379
:100E30001F93CF93DF93CDB7DEB72C970FB6F894FF
:100E4000DEBF0FBECDBF00E010E00F2EF4E2BF2EDC
:100E5000F02D0F2EF2E9EF2EF8E1FF2EF02D5524A4
:100E600053946894AA24A4F86894772473F8689437
:100E7000662462F8312C212C0F2EFFE14F2EF02D2D
:100E8000CC24C394D12CDAC1D8018C91823209F4DC
:100E900005C118F4803241F0D1C1833209F4C9C1CF
:100EA000843209F4C9C1CAC1F801B0828385982F80
:100EB0009A7009F0C3C1258136812F3F3F4F91F4CD
:100EC000D8011F968D919C915097F7012081318117
:100ED0002817390719F0019609F0B0C1E2E2D801EC
:100EE000EC93ACC1D8011F962D913C9150972F3FA8
:100EF0003F4F11F480FDA2C1F70120813181D8015B
:100F00001D968D919C911E972817390709F496C15B
:100F1000C801FADDE1EBF7E180E090E0832C922C50
:100F20009C014481442309F474C0D8011D966D913D
:100F30007C911E97408151816417750709F06AC042
:100F40001C968C911C97F901EE0FFF1FEE0FFF1FEF
:100F5000E20FF31FEF54F84E9281981B983008F07F
:100F60003EC0F901EE0FFF1FEE0FFF1FE20FF31F50
:100F7000EF54F84E8381482F50E0092E02C055955A
:100F800047950A94E2F740FF17C0F70120813181AD
:100F900017968D919C9118972817390709F04EC123
:100FA0001B966C911B9763FB662760F91F968D91CA
:100FB0009C915097A4DD42C1F901EE0FFF1FEE0F87
:100FC000FF1F2E0F3F1FF901EF54F84E960102C08C
:100FD000220F331F9A95E2F7822B838336C1F901E2
:100FE000EE0FFF1FEE0FFF1F2E0F3F1FF901EF54F3
:100FF000F84E82838381282F30E09195A90102C0A9
:10100000440F551F9A95E2F7CA0181608383448299
:101010001CC14F01019635968A30910509F080CFA9
:101020008114910409F40AC1D8011D968D919C91F7
:101030001E97F401918380831C968C918283538246
:10104000448283EA97E1CDD400C1D7012D913C9130
:10105000F801878590892817390781F0438542FD7B
:101060000BC0C801E1D1D7012D913C91F8018785D2
:1010700090892817390711F0019621F4E2E2D8018E
:10108000EC93DCC0D80117968D919C91189782172C
:10109000930709F0D3C0E3E2EC93D0C01092B017ED
:1010A000D80151968C91519782958F70E82FF0E07E
:1010B000EE0FFF1FE856F74E0190F081E02D3097BC
:1010C00009F460C01D962D913C911E973A832983A7
:1010D0001F964D915C9150975C834B8351969C91E8
:1010E00051979F709D838E83AF57BF4F8D919C9179
:1010F00099878887B8016E5F7F4F861B970BD80151
:1011000011969C911197981B9A87AD57BF4F8C9160
:101110008B8711968C918C87D8011B969C91692F97
:10112000637092FD02C080E001C080E2862B93FDD7
:1011300002C090E001C090E4892B4F3F5F4F11F057
:1011400090E001C0962D892BD80119964D915C91A4
:101150001A972417350711F090E001C0972D892BBD
:101160008F83D80115962D913C9116972F3F3F4FB5
:1011700011F090E001C09A2D892B8F83CE0101964A
:10118000199501C080E0F801938590FF80E0D801B7
:1011900017962D913C9118972F3F3F4F69F4F70117
:1011A00040815181D8011F962D913C915097421753
:1011B000530711F493FF852DF801258136812F3FC8
:1011C0003F4FA1F1D7012D913C912F3F3F4F71F13E
:1011D000882361F190DB4C01009741F1F4DBF401CD
:1011E00081818D5F8183E957FF4F11821082D80181
:1011F0001B968C911B9786958170F401938580FBDB
:1012000091F993871D968D919C911E97908B87875E
:10121000EF57FF4F0190F081E02D10828091B017C1
:1012200082831C968C918183C401B0D0D801BC927A
:1012300005C0C8011EDD02C0C80196DBC8019EDBE7
:101240008C01892B09F020CE07C0F8018781908599
:10125000019609F008CFF9CE2C960FB6F894DEBFB0
:101260000FBECDBFDF91CF911F910F91FF90EF90F7
:10127000DF90CF90BF90AF909F908F907F906F90B6
:101280005F904F903F902F900895EF92FF920F93B1
:101290001F93CF937C0110E080E090E001E0C3E178
:1012A00013C0FC012081213179F4EC57FF4F2081DC
:1012B00031812150310931832083232B21F4FC011A
:1012C000C083102F01C0102F59DB009751F7112355
:1012D00011F0C70186D3CF911F910F91FF90EF902E
:1012E0000895EF92FF920F931F93CF93DF937C01AA
:1012F00010E080E090E001E0D7E1C0E116C0FC0121
:101300002081263191F4EC57FF4F2081318121500B
:10131000310931832083232B39F4FC01D083ED572D
:10132000FF4FC083102F01C0102F28DB009739F723
:10133000112311F0C70155D3DF91CF911F910F9168
:10134000FF90EF9008951092FE171092FD17E0EFB6
:10135000F7E182E390E0A0E0B0E086839783A08786
:10136000B187128681E799E094878387E3EEF7E1FE
:101370008AE090E0A0E0B0E086839783A087B18701
:10138000128685E499E0948783870895CF93DF934D
:10139000EC01FC01EA57FF4F808181FF03C092E11D
:1013A000988302C092E19883FE01ED57FF4F1082AF
:1013B00080FF05C02FEF3FEF3E832D8306C02091B5
:1013C0009418309195183E832D83857019F4CE01C1
:1013D00031DC04C08F85988998878F83E2E9F8E132
:1013E000808191819A87898785818F5F85838C83AE
:1013F0008F819885019669F481E498E89B838A83BC
:101400002BD4CC57DF4F8770992701969983888317
:1014100008C081E698E89B838A83CC57DF4F198206
:101420001882DF91CF9108950F931F93CF93DF938D
:101430008C0161DAEC01892BA9F182E18883F80142
:1014400081818983FE01ED57FF4F108205D4FE0193
:10145000EC57FF4F877099270196918380833396CD
:1014600011821082F801418150E0B8016E5F7F4F18
:10147000CE010296FFD381E498E89B838A838FEFA5
:101480009FEF98878F83F801858196819E838D8356
:10149000E2E9F8E1808191819A87898785818F5F70
:1014A00085838C83DF91CF911F910F910895CF9306
:1014B000DF93FC0121852330D9F410C0FC01208189
:1014C000263189F43485298132130DC027E1208328
:1014D0002A81EA57FF4F208381E00BC0FC01C781BE
:1014E000D08580E090E04ADA009741F780E001C0C3
:1014F00080E0DF91CF910895E091FD17F091FE1704
:10150000813021F048F0823019F004C080E205C03B
:1015100081E203C081E001C080E0DF01AD57BF4F31
:101520008C9385E180831092FE171092FD17E2E9FB
:10153000F8E186A197A1019797A386A308959F92AA
:10154000AF92BF92CF92DF92EF92FF920F931F93D1
:10155000CF93DF93C0E0D0E00F2EF4E1AF2EF02D5B
:1015600002E918E10F2EF7E1DF2EF02D0F2EF6E144
:101570009F2EF02D0F2EF9E2EF2EF12CF02D0F2ED5
:10158000F3E1CF2EF02D0F2EF1E1BF2EF02D60C034
:1015900088818331C1F018F4823139F059C0853126
:1015A00049F1873109F445C053C0FE01EC57FF4FA4
:1015B00080819181892B29F0B88283EE97E111D245
:1015C00047C0C88245C08091FD179091FE17892BB6
:1015D00009F03EC0D093FE17C093FD17A882698121
:1015E000CE010296CBD0F80186A197A1019697A3D0
:1015F00086A32EC0FE01ED57FF4F8081811117C0D9
:101600002D853E85F801808191812817390769F47D
:101610008B8580FF0AC09882FE01EC57FF4FF18254
:10162000E08280EF97E1DDD113C0D88211C0D8826B
:101630000FC0CE01B8DAFE01E957FF4F0190F081EB
:10164000E02D309719F4CE018FD902C0CE01199543
:10165000CE0194D9EC01892B09F09ACFDF91CF917B
:101660001F910F91FF90EF90DF90CF90BF90AF90C0
:101670009F9008958091FF17982F9F70E4E5F1E007
:101680008081807F892B80838091FF17882329F0B8
:101690008091001880935301089580910018982F2D
:1016A0009F71E8E4F1E08081807E892B808308953A
:1016B00093E090934201E1E4F1E090819F719830D2
:1016C000E1F780934201E1E4F1E090819F71891399
:1016D000FCCF089588E0ECDF8FEF80934F0180917D
:1016E0000118882311F086E1E3CF0895E9E3F1E0E2
:1016F000808181608083109201181092FF1781E031
:101700008093821888E0D4DF8BEE80935601ECE45E
:10171000F1E0808180688083089580930118DACF9A
:10172000089580930018A6CF0895CF93DF931F925A
:101730001F92CDB7DEB79A838983809362018A8135
:10174000809363010F900F90DF91CF910895CF9315
:10175000DF931F921F92CDB7DEB79A838983809360
:1017600060018A818093610199818A81890F8093C8
:101770006D010F900F90DF91CF9108951F93CF933C
:10178000DF93182FD92FC62F89E192DF8FEF809337
:101790004F0182E08C0F80938001CC2371F0A12F48
:1017A000BD2FC1506C2F70E06E577E4FE1E8F1E025
:1017B0008D918193E617F707D9F783E0809382181C
:1017C00082E080934201DF91CF911F9108951F9392
:1017D000CF93DF9300D01F921F92CDB7DEB78091D9
:1017E0008218823009F465C080914F0183FF3EC0AA
:1017F000A0917B016A2F70E0AB014F5F5F4F80E0EB
:1018000090E020E0FC01E058FE4F3081FC01EE5FEB
:10181000F74E30832F5F822F90E08417950794F363
:1018200082E098E19A838983A250AB83FB01EE5F4B
:10183000F74E80818C83809147018A558D83CE013C
:101840000196BDDAE1E4F1E080818F718631E1F744
:10185000EFE4F1E0808188608083ECE4F1E0808156
:101860008F77808380818068808323C080914F013F
:1018700086FF1FC0809141018F718931A9F41091B9
:10188000420112951695177049F0133021F015306A
:1018900021F013E003C011E001C012E01BDF81E082
:1018A00080938218812F28DEEFE4F1E0808180644C
:1018B00080830F900F900F900F900F90DF91CF913A
:1018C0001F9108950E94EA026DD010DF0C944F031F
:1018D00008957DDF0E947D038FC008950F931F93AD
:1018E000CF93DF93EC018091831890918418009737
:1018F00009F445C04E815F8168857985FC010281CC
:10190000138124813581401751076207730760F006
:10191000DC0117C0028113812481358140175107F2
:101920006207730768F403C0FC01A0E0B0E0041B89
:10193000150B260B370B02831383248335830AC0D0
:10194000DF01401B510B620B730BED91FC91119762
:10195000309701F74A835B836C837D83109741F056
:101960008D919C91119799838883CD93DC9315C0B9
:1019700099838883D0938418C09383180EC01982EA
:1019800018828E819F81A885B9858A839B83AC83C9
:10199000BD83D0938418C0938318DF91CF911F919A
:1019A0000F91089510928418109283180895E09171
:1019B0008318F0918418309771F0E817F90721F433
:1019C0000CC08E179F0759F00190F081E02D3097E1
:1019D000C1F780E0089580E0089581E0089581E0F6
:1019E0000895CF93DF93EC01E2DF811102C0CE01B5
:1019F00075DFDF91CF910895CF92DF92EF92FF9242
:101A0000CF93DF9380919118882309F459C08FB741
:101A1000F894C0909118109291188FBFD12CE12C9E
:101A2000F12CCC0CDD1CEE1CFF1CD701C601880F6D
:101A3000991FAA1FBB1F880F991FAA1FBB1FC80E83
:101A4000D91EEA1EFB1EC0918318D09184182097DE
:101A5000B9F18A819B81AC81BD81C816D906EA069D
:101A6000FB0610F1C81AD90AEA0AFB0A8881998193
:101A700090938418809383188A85813011F4CE0165
:101A80002DDFEB85FC85CE011995C0918318D0918F
:101A900084182097A9F08A819B81AC81BD81C816EA
:101AA000D906EA06FB06F0F68A819B81AC81BD81EE
:101AB0008C199D09AE09BF098A839B83AC83BD83C2
:101AC000DF91CF91FF90EF90DF90CF9008959C0130
:101AD00040E050E060E271EA87E090E05AD02150A7
:101AE000310986E08093CA003093CD002093CC006A
:101AF00088E18093C90008959C0140E050E060E2D5
:101B000071EA87E090E045D02150310986E080936A
:101B1000C2003093C5002093C40080E18093C100CF
:101B20000895E8ECF0E0908195FFFDCF8093CE0022
:101B30000895CF93DF93EC018881882329F02196C3
:101B4000F0DF89918111FCCFDF91CF910895A1E25F
:101B50001A2EAA1BBB1BFD010DC0AA1FBB1FEE1F27
:101B6000FF1FA217B307E407F50720F0A21BB30B72
:101B7000E40BF50B661F771F881F991F1A9469F7EE
:101B800060957095809590959B01AC01BD01CF014A
:101B90000895052E97FB16F400940FD057FD05D03D
:101BA000D6DF07FC02D046F408C05095409530952A
:101BB00021953F4F4F4F5F4F0895909580957095B9
:101BC00061957F4F8F4F9F4F08958F929F92AF9255
:101BD000BF92CF92DF92EF92FF92CF93DF93EC010F
:101BE000688179818A819B816115710581059105E3
:101BF00021F464E279ED8BE597E02DE133EF41E0EC
:101C000050E0C7DF49015A019B01AC01A7EAB1E4EA
:101C100041D06B017C01ACEEB4EFA501940146D03C
:101C2000DC01CB018C0D9D1DAE1DBF1DB7FF03C098
:101C30000197A109B04888839983AA83BB839F77C2
:101C4000DF91CF91FF90EF90DF90CF90BF90AF905A
:101C50009F908F900895B9CF80E092E0B6CFA0E03A
:101C6000B0E08093000290930102A0930202B0932F
:101C700003020895FB01DC0102C001900D92415066
:101C80005040D8F70895FB01DC0101900D9200202F
:101C9000E1F708950FD0A59F900DB49F900DA49FDC
:101CA000800D911D11240895B7FFF4CFF3DF821B3F
:101CB000930B0895A29FB001B39FC001A39F700D25
:101CC000811D1124911DB29F700D811D1124911D44
:061CD0000895F894FFCF17
:101CD6000100000068686D6D737300000000244702
:101CE60050524D432C3139343530392E3030302C6A
:101CF600412C343034322E363134322C4E2C30379F
:101D06003430302E343136382C572C322E30332C9A
:101D1600352E38342C3136303431322C2C2C412AA5
:101D260037373800000A0D41637475616C204750DF
:101D3600535F6275666665723A200A0D000A0D47A2
:101D460050524D43207061636B6574206F6B200A9F
:101D56000D000A0D68686D6D73733A200A0D000A4E
:101D66000D204E6F20475053207369676E616C20BB
:101D76002F20496E76616C6964207061636B6574AF
:101D86000A000A0D4750532072657365740A0D00E8
:00000001FF
